8 8=FIX.4.4|9=114|35=A|49=MU9043800002|56=IFIX-EQ-UAT|34=8|52=20210410-231930.000000|112=20210410-231930.000000|98=0|108=3|554=4068|10=104|
9 8=FIX.4.4|9=132|35=D|49=MU9043800002|56=IFIX-EQ-UAT|34=9|52=20210410-231935.000000|11=1|386=1|55=SBRP|54=1|60=20210410-231935.000000|38=1|40=1|44=0|10=204|
